:100000000C9450010C9481010C9481010C94810199
:100010000C9481010C9481010C9481010C94810158
:100020000C9481010C947B080C947B080C947B0845
:100030000C9481010C94CD040C9481010C948101E9
:100040000C9481010C94F2060C9481010C948101B2
:100050000C9481010C9481010C9481010C94830413
:100060000C9481010C943E060C9414060C948101AE
:100070000C9481010C9481010C9481010C948101F8
:100080000C94C4060C9481010C9481010C948101A0
:100090000C9481010C9481010C9481010C948508CD
:1000A0000C9481010C9481010C9496060C948101AE
:1000B0000C9481010C9481010C9481010C946806CC
:1000C0000C9481010C9481010C9481010C94EA053B
:1000D0000C94C0050C9481010C9496050C946C054D
:1000E0000C948101E609E909D809DC09E009200A34
:1000F000ED09F109F709FB09FF09050A090A0D0ACB
:10010000200A130A170A1B0A0C94090A0C94700798
:100110000C94DC090C940D0A0C94130A0C941B0A21
:100120000C94D8090C94280C0C94FB090C94F70936
:100130000C94C7010C94E0090C9453070C94050A25
:100140000C94E3020C9478070C94E9090C94430294
:100150000C945E040C94200A0C942E0C0C94F1095F
:100160000C94FF090C9461070C94E4020C94E609CA
:100170000C94F8010C94ED090C94EA010C948301A1
:100180000C94A8070C94D6010C9452070C94170AEF
:100190000C948A020200002100240027002A002D6E
:1001A000003000330001010000040107010A0100D2
:1001B000002200250028002B002E00310034000210
:1001C000010000050108010B0105050505070508EB
:1001D000080808020202020A0A08080404040401CA
:1001E00001010101010101030303030303030304EC
:1001F0000707070C0C0C0C0C0C0C0C02020202067C
:10020000060606060606060B0B0B0B0B0B0B0B016B
:100210000210202008081020401020408002010217
:1002200001080402010102040810204080804020DF
:10023000100804020180040201804020100804021A
:100240000108040201010204081020408001020498
:10025000081020408000000A0B02090C0D0E080750
:100260000304010000000000000000000000000086
:10027000000000000000000000000000000000007E
:10028000001211100000000000000000000000003B
:100290000000000000000000000000002E0C280CF0
:1002A00011241FBECFEFD1E2DEBFCDBF00E00CBFF7
:1002B00012E0A0E0B2E0E8E3F0E200E00BBF02C031
:1002C00007900D92A833B107D9F726E0A8E3B2E072
:1002D00001C01D92A830B207E1F711E0CFE4D1E0F0
:1002E00000E006C021970109802FFE010E94D70D72
:1002F000CE34D10780E00807A9F70E94950A0C9434
:100300000A100C940000CF92DF92EF92FF920F93AD
:100310001F93CF93DF936C017A018B01C0E0D0E093
:10032000CE15DF0589F0D8016D918D01D601ED91D3
:10033000FC910190F081E02DC6011995892B11F4F3
:100340007E0102C02196ECCFC701DF91CF911F91B2
:100350000F91FF90EF90DF90CF900895FC01A0895E
:10036000B1898C91A689B78982FD0FC09C91818D3E
:100370008F5F8F73228D821749F0218DDF01A20FCD
:10038000B11D5D969C93818F08958C910895FC0119
:10039000538D448D252F30E0842F90E0821B930BEA
:1003A000541710F0CF96089501970895FC01918D90
:1003B000828D981761F0828DDF01A80FB11D5D96C7
:1003C0008C91928D9F5F9F73928F90E008958FEF35
:1003D0009FEF0895FC01918D828D981731F0828DE9
:1003E000E80FF11D858D90E008958FEF9FEF089540
:1003F000FC01918D228D892F90E0805C9F4F821BA4
:1004000091098F739927089587E892E00E94F80177
:1004100021E0892B09F420E0822F089584E293E003
:100420000E94F80121E0892B09F420E0822F089531
:1004300081EC93E00E94F80121E0892B09F420E08F
:10044000822F0895FC01848DDF01A80FB11DA35AEE
:10045000BF4F2C91848D90E001968F739927848FE4
:10046000A689B7892C93A089B1898C9180648C93DB
:10047000938D848D981306C00288F389E02D8081C6
:100480008F7D80830895EF92FF920F931F93CF93F8
:10049000DF93EC0181E0888F9B8D8C8D981305C0D4
:1004A000E889F989808185FD24C0F62E0B8D10E046
:1004B0000F5F1F4F0F731127E02E8C8DE8120CC0B9
:1004C0000FB607FCFACFE889F989808185FFF5CF5F
:1004D000CE010E942202F1CF8B8DFE01E80FF11DAB
:1004E000E35AFF4FF0820B8FEA89FB89808180629B
:1004F00007C0EE89FF896083E889F989808180647B
:10050000808381E090E0DF91CF911F910F91FF9068
:10051000EF900895CF93DF93EC01888D8823C9F085
:10052000EA89FB89808185FD05C0A889B9898C91FC
:1005300086FD0FC00FB607FCF5CF808185FFF2CF97
:10054000A889B9898C9185FFEDCFCE010E94220246
:10055000E7CFDF91CF910895E0E0F0E0199480E0DB
:1005600090E0892B21F00E941802811119C080E0CF
:1005700090E0892B41F080E090E0892B21F00E94EF
:100580000000811110C00E940E0281110FC080E096
:1005900090E0892B81F00E94040281110AC0089525
:1005A0000E940000E4CF0E940000EDCF0E94AC0248
:1005B000EECF0C94000008958EBD00000DB407FE30
:1005C000FDCF8EB50895089580E090E008950F93D3
:1005D0001F93CF93DF93EC01862F6883498361E0FB
:1005E0000E94340A60E089810E94340A61E08881B7
:1005F0000E94B7091FB7F89480915502811127C056
:10060000EEEFF1E09491E4E4F2E08491E92FF0E080
:10061000EE0FFF1FEB56FE4FA591B491EC91E8232E
:1006200021F461E085E30E94B70961E085E30E945F
:10063000340A8CB580618CBD8CB580648CBD61E062
:1006400084E30E94340A61E083E30E94340A8091CB
:1006500055028F5F809355021FBF0BEC17E0C80156
:100660000197F1F760E088810E94B70988E80E944D
:10067000DC0283E00E94DC0261E088810E94B7090D
:10068000C8010197F1F760E088810E94B70988E905
:100690000E94DC0280E00E94DC0280E00E94DC021A
:1006A00080E00E94DC0280E00E94DC0261E0888140
:1006B0000E94B7098BE891E00197F1F760E088812B
:1006C0000E94B70980EE0E94DC0261E08881DF9120
:1006D000CF911F910F910C94B709CF92DF92EF92B7
:1006E000FF920F931F93CF93DF936C018B017A01DD
:1006F000EC01CF5ADD4F888187FF04C0FB011182D6
:10070000108224C08CE08C9D90018D9D300D1124B1
:100710008881A901480F511D87FD5A958091EE04EB
:1007200090E04817590794F48881A901480F511D9A
:1007300087FD5A95CA01FA01EE0FFF1F8E0F9F1F0A
:10074000FC01E25AFB4F808186FD19C088818F5FD2
:1007500088838CE08C9D90018D9D300D11248881C3
:10076000A901480F511D87FD5A958091EE0490E034
:1007700048175907BCF488818C3044F113C0888134
:10078000280F311D87FD3A95F901EE0FFF1F2E0F3F
:100790003F1FF901E25AFB4F808160E08F730E9496
:1007A000B709D4CFF80180819181049680349C49A7
:1007B00018F480E49CE904C0F801808191810496DA
:1007C000F701918380838FEF888345C0F8014081D2
:1007D00051818881B901680F711D87FD7A95CB0120
:1007E000FB01EE0FFF1F8E0F9F1FFC01E25AFB4F14
:1007F00081819281840F951FF70191838083888185
:10080000A901480F511D87FD5A95CA01FA01EE0F43
:10081000FF1F8E0F9F1FFC01E25AFB4F808186FF56
:100820001AC08881280F311D87FD3A95F901EE0F16
:10083000FF1F2E0F3F1FF901E25AFB4F808161E03D
:100840008F73DF91CF911F910F91FF90EF90DF9009
:10085000CF900C94B709DF91CF911F910F91FF902A
:10086000EF90DF90CF9008950E94F50FFC01248156
:1008700031E030937702209379021092780210923F
:100880007A028485682B8BE792E00E94A8070C947B
:10089000D7070F931F93CF938C01C62F64600E94DC
:1008A00036046C2F6B7FC8010E94360483EC90E005
:1008B0000197F1F7CF911F910F9108950F931F9317
:1008C000CF93DF938C01C62FD62FD07FD1606D2FB1
:1008D0000E9436046D2FC8010E94490480E1C89F20
:1008E000B0011124C62FC1606C2FC8010E943604CC
:1008F0006C2FC8010E94490481E090E0DF91CF9104
:100900001F910F9108951F920F920FB60F9211240D
:100910002F933F938F939F93AF93BF9380916A02DE
:1009200090916B02A0916C02B0916D0230916902BE
:1009300023E0230F2D3720F40196A11DB11D05C022
:1009400026E8230F0296A11DB11D20936902809312
:100950006A0290936B02A0936C02B0936D02809137
:100960006E0290916F02A0917002B0917102019697
:10097000A11DB11D80936E0290936F02A09370022F
:10098000B0937102BF91AF919F918F913F912F9141
:100990000F900FBE0F901F9018951F920F920FB6D9
:1009A0000F9211240BB60F922F933F934F935F93A7
:1009B0006F937F938F939F93AF93BF93EF93FF9327
:1009C0008091590290915A02A0915B02B0915C0211
:1009D000892B8A2B8B2B59F180915802E09156027A
:1009E000F0915702908189278083809159029091DC
:1009F0005A02A0915B02B0915C02181619061A0601
:100A00001B060CF056C08091590290915A02A09199
:100A10005B02B0915C020197A109B1098093590270
:100A200090935A02A0935B02B0935C0242C0809103
:100A30000002E4E9F1E0E4919FEF90930002E230DC
:100A4000C9F050F4EE2399F0E13081F590916F00F8
:100A50009D7F90936F002AC0E43019F1E0F0E530FB
:100A600029F5909173009D7F909373001FC01092A1
:100A70006E001CC0909170009D7F9093700091E07B
:100A80009093B0009091B100987F94609093B100E2
:100A90001092B3000BC0909171009D7F90937100F4
:100AA00005C0909172009D7F9093720060E00E945B
:100AB000B709FF91EF91BF91AF919F918F917F9176
:100AC0006F915F914F913F912F910F900BBE0F90BF
:100AD0000FBE0F901F9018951F920F920FB60F9296
:100AE00011240BB60F922F933F934F935F936F9305
:100AF0007F938F939F93AF93BF93EF93FF9387E879
:100B000092E00E942202FF91EF91BF91AF919F91DD
:100B10008F917F916F915F914F913F912F910F90A6
:100B20000BBE0F900FBE0F901F9018951F920F9243
:100B30000FB60F9211240BB60F922F933F934F9342
:100B40005F936F937F938F939F93AF93BF93EF9335
:100B5000FF9387E892E00E94AE01FF91EF91BF9171
:100B6000AF919F918F917F916F915F914F913F9145
:100B70002F910F900BBE0F900FBE0F901F901895E6
:100B80001F920F920FB60F9211240BB60F922F9354
:100B90003F934F935F936F937F938F939F93AF9305
:100BA000BF93EF93FF9384E293E00E942202FF91B0
:100BB000EF91BF91AF919F918F917F916F915F91D5
:100BC0004F913F912F910F900BBE0F900FBE0F9042
:100BD0001F9018951F920F920FB60F9211240BB60B
:100BE0000F922F933F934F935F936F937F938F93C6
:100BF0009F93AF93BF93EF93FF9384E293E00E94A0
:100C0000AE01FF91EF91BF91AF919F918F917F9135
:100C10006F915F914F913F912F910F900BBE0F906D
:100C20000FBE0F901F9018951F920F920FB60F9244
:100C300011240BB60F922F933F934F935F936F93B3
:100C40007F938F939F93AF93BF93EF93FF9381EC29
:100C500093E00E942202FF91EF91BF91AF919F918B
:100C60008F917F916F915F914F913F912F910F9055
:100C70000BBE0F900FBE0F901F9018951F920F92F2
:100C80000FB60F9211240BB60F922F933F934F93F1
:100C90005F936F937F938F939F93AF93BF93EF93E4
:100CA000FF9381EC93E00E94AE01FF91EF91BF9121
:100CB000AF919F918F917F916F915F914F913F91F4
:100CC0002F910F900BBE0F900FBE0F901F90189595
:100CD0001F920F920FB60F9211240BB60F922F9303
:100CE0003F934F935F936F937F938F939F93AF93B4
:100CF000BF93EF93FF9348E251E064E271E080E03C
:100D000090E00E946D03FF91EF91BF91AF919F9191
:100D10008F917F916F915F914F913F912F910F90A4
:100D20000BBE0F900FBE0F901F9018951F920F9241
:100D30000FB60F9211240BB60F922F933F934F9340
:100D40005F936F937F938F939F93AF93BF93EF9333
:100D5000FF9348EA50E064EA70E083E090E00E948C
:100D60006D03FF91EF91BF91AF919F918F917F9113
:100D70006F915F914F913F912F910F900BBE0F900C
:100D80000FBE0F901F9018951F920F920FB60F92E3
:100D900011240BB60F922F933F934F935F936F9352
:100DA0007F938F939F93AF93BF93EF93FF9348E904
:100DB00050E064E970E082E090E00E946D03FF91F2
:100DC000EF91BF91AF919F918F917F916F915F91C3
:100DD0004F913F912F910F900BBE0F900FBE0F9030
:100DE0001F9018951F920F920FB60F9211240BB6F9
:100DF0000F922F933F934F935F936F937F938F93B4
:100E00009F93AF93BF93EF93FF9348E850E064E85C
:100E100070E081E090E00E946D03FF91EF91BF913F
:100E2000AF919F918F917F916F915F914F913F9182
:100E30002F910F900BBE0F900FBE0F901F90189523
:100E400085ED8093BC008091BC0084FDFCCF1092A6
:100E50007602089540919905262F30E0240F311D28
:100E600021323105DCF4209176022430C9F4FC01F2
:100E700080E090E0861758F4309199052191DC01CB
:100E8000A958BA4FA30FB11D2C930196F3CF8091AF
:100E90009905680F6093990580E0089581E00895B1
:100EA00082E00895089581E090E0309173022091EE
:100EB0007202321710F480E090E0919581959109CB
:100EC00008958091730290917202891730F48F5FB8
:100ED0008093730280E090E008958FEF9FEF089574
:100EE0008091720290E020917302821B9109089513
:100EF000CF92DF92EF92FF920F931F93CF93DF93E6
:100F00007C01262F972F8A0180917702882391F008
:100F1000C62FD72F6E01C40ED51ECC15DD0571F07E
:100F20006991D701ED91FC910190F081E02DC7010D
:100F30001995F3CF642F822F0E942A07C801DF91F1
:100F4000CF911F910F91FF90EF90DF90CF90089578
:100F5000CF93DF931F92CDB7DEB7698320917702DD
:100F60002223D1F020917A02203240F021E030E0BB
:100F7000FC013383228380E090E015C080917802E9
:100F8000E82FF0E0EC51FA4F998190838F5F8093C6
:100F9000780280937A0205C061E0CE0101960E943A
:100FA0002A0781E090E00F90DF91CF910895209182
:100FB0007A0290917902213208F04AC0809176023B
:100FC0008111FCCF32E03093760231E0309375022C
:100FD0003FEF3093E3051092E2052093E105A4EE84
:100FE000B5E041EC55E0FA013E2F341B321718F4FE
:100FF0003D913193F9CF1092C0052091C005990F12
:10100000922B9093C00590917402913061F41092EC
:1010100074029091C0059093BB009091BC0093FD29
:10102000F8CF95EC01C095EE9093BC0090917602BC
:101030009230E1F39091E3059F3F79F08091E305D1
:10104000803241F08091E305803331F084E005C0C7
:1010500081E003C082E001C083E010927802109228
:101060007A02109277020895EF92FF921F93CF9326
:10107000DF931F92CDB7DEB7162F9AE5E92E95E0E4
:10108000F92ED7011C969C911C9721E020937702A2
:10109000909379021092780210927A021A960D902B
:1010A000BC91A02DED91FC9111970190F081E02D64
:1010B000682FCD0179831995F70182859385DC012D
:1010C000ED91FC910190F081E02D7981672F1995C8
:1010D000F70182859385DC01ED91FC910190F0810F
:1010E000E02D612F19950F90DF91CF911F91FF9007
:1010F000EF900C94D7071F920F920FB60F92112406
:101100000F900FBE0F901F9018951F920F920FB661
:101110000F9211240BB60F922F933F934F935F932F
:101120006F937F938F939F93AF93BF93EF93FF93AF
:101130008091B900887F803609F49CC068F58832B8
:1011400009F45BC090F4803109F454C038F488236A
:1011500009F4F6C0883009F44DC0F6C0883109F4AE
:101160004CC0803209F45DC0EFC0803409F468C01F
:1011700048F4803309F455C0883309F0E5C0809302
:10118000E305D8C0803509F44FC0883509F45DC047
:10119000883409F0D9C0D6C0883909F4C7C0A8F48A
:1011A000883709F467C038F4883609F463C080379B
:1011B00009F460C0C9C0883809F4B8C0803909F49E
:1011C0005FC0803809F0C0C05BC0803B09F486C0B6
:1011D00038F4803A09F466C0883A09F47FC0B4C094
:1011E000803C09F4A7C0883C09F4A4C0883B09F4FA
:1011F0008AC0AAC08091C00510C09091E20580917C
:10120000E105981770F5E091E20581E08E0F80937B
:10121000E205F0E0EF53FA4F80818093BB0085EC4C
:1012200086C08093E3058EC0E091E20581E08E0FD9
:101230008093E2058091BB00F0E0EF53FA4F80838A
:101240009091E2058091E1056EC0E091E20581E0B8
:101250008E0F8093E2058091BB00F0E0EF53FA4FD0
:1012600080838091750281116DC081E0809374024A
:1012700084EA61C083E0809376021092BD05CFCFEF
:101280008091BD05803208F051C0E091BD0581E03C
:101290008E0F8093BD058091BB00F0E0E356FA4FBE
:1012A0008083BDCF85EC8093BC0010927602809144
:1012B000BD05803230F4E091BD05F0E0E356FA4F11
:1012C00010826091BD0570E0E0919B05F0919C0556
:1012D0008DE995E019951092BD0536C084E08093A4
:1012E000760210929A0510929905E0919705F09177
:1012F0009805199580919905811105C081E0809329
:10130000990510927705E0919A0581E08E0F809300
:101310009A05F0E0E958FA4F80818093BB009091E4
:101320009A0580919905981708F479CF85E88093FC
:10133000BC000AC085EC8093BC001092760204C009
:101340001092E3050E942007FF91EF91BF91AF91AA
:101350009F918F917F916F915F914F913F912F91CD
:101360000F900BBE0F900FBE0F901F901895362F49
:1013700090E0FC01EB5AFD4F4491FC01E15FFD4F11
:101380002491FC01E753FE4F9491992309F46BC01B
:10139000442309F455C050E0FA013197E231F105D8
:1013A00008F04EC08827EE58FF4F8F4F0C94D70D92
:1013B000809180008F7707C0809180008F7D03C06F
:1013C00080918000877F809380003AC084B58F77BA
:1013D00002C084B58F7D84BD33C08091B0008F770B
:1013E00003C08091B0008F7D8093B00029C08091B0
:1013F00090008F7707C0809190008F7D03C080910F
:101400009000877F809390001BC08091A0008F7711
:1014100007C08091A0008F7D03C08091A000877FCE
:101420008093A0000DC0809120018F7707C080912C
:1014300020018F7D03C080912001877F8093200150
:10144000E92FF0E0EE0FFF1FE155FE4FA591B4919B
:101450008FB7F894EC91311103C020952E2301C071
:101460002E2B2C938FBF0895CF93DF9390E0FC0138
:10147000E15FFD4F2491FC01E753FE4F84918823E7
:1014800061F190E0880F991FFC01EB56FE4FC5916A
:10149000D491FC01E155FE4FA591B491611109C0B1
:1014A0009FB7F8948881209582238883EC912E231E
:1014B0000BC0623061F49FB7F8943881822F809519
:1014C00083238883EC912E2B2C939FBF06C08FB76C
:1014D000F894E8812E2B28838FBFDF91CF91089558
:1014E0003FB7F89480916E0290916F02A0917002C4
:1014F000B091710226B5A89B05C02F3F19F0019647
:10150000A11DB11D3FBFBA2FA92F982F8827820F89
:10151000911DA11DB11DBC01CD0142E0660F771FD9
:10152000881F991F4A95D1F70895789484B58260F1
:1015300084BD84B5816084BD85B5826085BD85B577
:10154000816085BD80916E00816080936E001092F5
:101550008100809181008260809381008091810070
:101560008160809381008091800081608093800001
:101570008091B10084608093B1008091B00081605F
:101580008093B0008091910082608093910080915F
:1015900091008160809391008091900081608093A0
:1015A00090008091A10082608093A1008091A100B1
:1015B00081608093A1008091A00081608093A00051
:1015C00080912101826080932101809121018160BD
:1015D000809321018091200181608093200180917E
:1015E0007A00846080937A0080917A008260809390
:1015F0007A0080917A00816080937A0080917A00ED
:10160000806880937A001092C100E091D103F0913C
:10161000D20382E08083E091CD03F091CE0310826B
:10162000E091CF03F091D0038FEC80831092D90327
:10163000E091D503F091D60396E09083E091D30337
:10164000F091D403808180618083E091D303F09195
:10165000D403808188608083E091D303F091D40328
:10166000808180688083E091D303F091D4038081EE
:101670008F7D8083909365028FE18093660261E0A5
:1016800086E00E94340A61E0809166020E94340A7A
:1016900085E0809367028EE18093680261E085E0D7
:1016A0000E94340A61E0809168020E94340A45E495
:1016B00063E281E692E00E94E70244E462E283E6AC
:1016C00092E00E94E70286E180935D0287E18093C9
:1016D0005E0260E086E10E94340A61E080915E0271
:1016E0000E94340A60E080915E020E94B70988E19E
:1016F00080935F0289E18093600260E088E10E944C
:10170000340A61E0809160020E94340A60E08091B6
:1017100060020E94B70961E080915B050E94340A73
:1017200060E080915B050E94B70960E080915A05F6
:101730000E94340A8BE792E09093650580936405DC
:1017400010927302109272021092780210927A0232
:101750001092760281E0809375021092740261E02B
:1017600084E10E94B70961E085E10E94B709809198
:10177000B9008E7F8093B9008091B9008D7F8093EE
:10178000B90088E48093B80085E48093BC0080E0D1
:1017900090E1A0E0B0E08093670590936805A09386
:1017A0006905B0936A058AE090E0A0E0B0E080931C
:1017B0006B0590936C05A0936D05B0936E0582E068
:1017C00090E0A0E0B0E080936F0590937005A09347
:1017D0007105B093720560E070E185E00E94340805
:1017E0006FE979E380E00E943408CCE5D5E01C2F56
:1017F0001C5F60E089910E94340A1C13FACF0E949A
:10180000700A4B015C018AE0C82ED12CE12CF12C2E
:101810000E94700ADC01CB0188199909AA09BB0949
:10182000883E9340A105B10558F081E0C81AD1085F
:10183000E108F10828EE820E23E0921EA11CB11CE3
:10184000C114D104E104F10419F70E94AF02D7CF0B
:101850008091EF049091F0040C94740E10927E022B
:1018600010927D0288EE93E0A0E0B0E080937F02CA
:1018700090938002A0938102B09382022BE032E029
:1018800030937C0220937B0210928A02109289028C
:1018900080938B0290938C02A0938D02B0938E0262
:1018A0002DE132E0309388022093870245E351E036
:1018B000509394024093930244E351E05093960274
:1018C0004093950240E351E0509398024093970271
:1018D00041E351E050939A024093990242E351E070
:1018E00050939C0240939B0246E351E050939E022A
:1018F00040939D021092A0021092A1021092A202A7
:101900001092A302109227031092260380932803BB
:1019100090932903A0932A03B0932B0330932503BC
:101920002093240345ED50E050933103409330035E
:1019300044ED50E0509333034093320340ED50E0C8
:10194000509335034093340341ED50E050933703F7
:101950004093360342ED50E05093390340933803EF
:1019600046ED50E050933B0340933A0310923D0301
:1019700010923E0310923F03109240031092C40352
:101980001092C3038093C5039093C603A093C7032B
:10199000B093C8033093C2032093C10385EC90E059
:1019A0009093CE038093CD0384EC90E09093D0038A
:1019B0008093CF0380EC90E09093D2038093D10387
:1019C00081EC90E09093D4038093D30382EC90E079
:1019D0009093D6038093D50386EC90E09093D80340
:1019E0008093D7031092DA031092DB031092DC038A
:1019F0001092DD038DE090E00E94DF0DFC01138268
:101A000012828FE292E091838083118687E2848341
:101A100084E1828784E083871486F0937405E093E1
:101A2000730510927505109276058CE080935A0527
:101A300084E280935B058BE180935C058DE180936C
:101A40005D058AE180935E058CE180935F0586E306
:101A50008093600587E38093610588E38093620546
:101A600089E38093630580E48093660510926B059B
:101A700010926C0510926D0510926E0510926F0514
:101A80001092700510927105109272058091EE040B
:101A9000803320F09FEF9093540511C0809354053C
:101AA000282F30E0F901EE0FFF1F2E0F3F1FF90125
:101AB000E25AFB4F28EB3BE0328321838F5F803378
:101AC00090F480935705282F30E0F901EE0FFF1FA7
:101AD0002E0F3F1FF901E25AFB4F28EB3BE0328308
:101AE00021838F5F03C09FEF909357058093EE048F
:101AF000E5EFF4E08FEF9FEFDC0112821382148296
:101B00001582168217821086118683879487A5878F
:101B1000B6878787908BA18BB28B12861182108239
:101B2000739625E0E435F20741F71092F004109225
:101B3000EF041092F2041092F1041092F404109247
:101B4000F30461E070E080E090E00E940C0F0097E9
:101B500089F09093F0048093EF041092F2041092B5
:101B6000F1042091F3043091F404232BC1F4FC011F
:101B7000108215C08091EF049091F004009711F04D
:101B80000E94740E1092F0041092EF041092F4046C
:101B90001092F3041092F2041092F104089510923E
:101BA000F4041092F30467E372E00C940310EE0F58
:101BB000FF1F881F8BBF0790F691E02D1994CF93DC
:101BC000DF938230910510F482E090E0E091060608
:101BD000F091070620E030E0C0E0D0E0309711F14E
:101BE0004081518148175907C0F04817590761F4DF
:101BF00082819381209719F09B838A832BC09093D5
:101C000007068093060626C02115310519F04217F4
:101C1000530718F49A01BE01DF01EF010280F3813E
:101C2000E02DDCCF2115310509F1281B390B2430BB
:101C3000310590F412968D919C9113976115710561
:101C400021F0FB019383828304C090930706809365
:101C50000606FD01329644C0FD01E20FF31F819399
:101C60009193225031092D933C933AC02091040660
:101C700030910506232B41F4209103023091040298
:101C80003093050620930406209101023091020250
:101C90002115310541F42DB73EB740910502509111
:101CA0000602241B350BE0910406F0910506E217AD
:101CB000F307A0F42E1B3F0B2817390778F0AC016F
:101CC0004E5F5F4F2417350748F04E0F5F1F50934C
:101CD0000506409304068193919302C0E0E0F0E092
:101CE000CF01DF91CF9108950F931F93CF93DF938F
:101CF000009709F48CC0FC01329713821282009184
:101D00000606109107060115110581F42081318125
:101D1000820F931F2091040630910506281739077A
:101D200079F5F0930506E093040671C0D80140E010
:101D300050E0AE17BF0750F412962D913C911397C7
:101D4000AD012115310509F1D901F3CF9D01DA016A
:101D50003383228360817181860F971F82179307D7
:101D600069F4EC0128813981260F371F2E5F3F4F20
:101D7000318320838A819B8193838283452B29F43D
:101D8000F0930706E093060642C01396FC93EE9389
:101D90001297ED01499159919E01240F351FE217C9
:101DA000F30771F480819181840F951F029611963B
:101DB0009C938E938281938113969C938E9312971A
:101DC000E0E0F0E0D80112968D919C911397009776
:101DD00019F0F8018C01F6CF8D919C9198012E5F3E
:101DE0003F4F820F931F209104063091050628175C
:101DF000390769F4309729F4109207061092060605
:101E000002C0138212821093050600930406DF912C
:101E1000CF911F910F9108956F927F928F929F9211
:101E2000AF92BF92CF92DF92EF92FF920F931F93E8
:101E3000CF93DF93EC01009789F4CB01DF91CF9131
:101E40001F910F91FF90EF90DF90CF90BF90AF90D8
:101E50009F908F907F906F900C94DF0DFC01E60FA8
:101E6000F71F9C0122503109E217F30708F4ACC0B8
:101E7000D9010D911C91119706171707B0F0053085
:101E8000110508F49FC0C80104978617970708F446
:101E900099C002501109061B170B019311936D9302
:101EA0007C93CF010E94740E8DC05B01A01AB10A11
:101EB0004C01800E911EA0910606B091070640E0ED
:101EC00050E0E12CF12C109709F44AC0A815B9058F
:101ED000D1F56D907C901197630182E0C80ED11C02
:101EE000CA14DB0480F1A3014A195B096A0182E08C
:101EF000C80ED11C1296BC9012971396AC91B5E007
:101F0000CB16D10440F0B282A38351834083D90120
:101F10006D937C930AC00E5F1F4FC301800F911F0A
:101F2000F90191838083EB2DFA2FE114F10431F054
:101F3000D7011396FC93EE93129744C0F0930706D3
:101F4000E09306063FC08D919C9111974817590761
:101F500008F4AC017D0112960D90BC91A02DB3CF79
:101F6000809104069091050688159905E1F44617BD
:101F70005707C8F48091010290910202009741F442
:101F80008DB79EB74091050250910602841B950BB8
:101F9000E817F907C8F4F0930506E0930406F90181
:101FA000718360830FC0CB010E94DF0D7C0100971D
:101FB00059F0A801BE010E94FA0FCE010E94740ED2
:101FC000C70104C0CE0102C080E090E0DF91CF9154
:101FD0001F910F91FF90EF90DF90CF90BF90AF9047
:101FE0009F908F907F906F90089581E090E0F8949B
:101FF0000C940A10FB01DC0102C001900D924150CB
:102000005040D8F70895FB01DC0101900D920020AB
:10201000E1F7089511E0CFE4D1E000E006C0802FA1
:10202000FE010E94D70D2196011DC035D10780E029
:082030000807A9F7F894FFCF9F
:10203800FF00000806200000000000A8077807E459
:10204800025207700761075307000000004302832C
:1020580001C7018A02F801D601EA01000000005E0A
:08206800048301E402E302001D
:00000001FF
